:020000040800F2
:10000000280600200101000807150008B5140008A3
:1000100005150008B9060008F117000800000000E7
:100020000000000000000000000000000B150008A8
:10003000BB06000800000000091500080D150008A7
:100040001B0100081B0100081B0100081B01000820
:100050001B0100081B0100081B0100081B01000810
:100060001B0100081B0100081B0100081B01000800
:100070001B0100081B0100081B0100081B010008F0
:100080001B0100081B0100081B0100081B010008E0
:100090001B0100081B0100081B0100081B010008D0
:1000A0001B0100081B0100081B0100081B010008C0
:1000B0001B0100081B0100081B0100081B010008B0
:1000C0001B0100081B0100081B0100081B010008A0
:1000D0001B010008451700081B01000865170008F0
:1000E0001B0100081B0100081B010008DFF80CD0F1
:1000F00000F052FA004800476D240008280600204E
:100100000648804706480047FEE7FEE7FEE7FEE7B1
:10011000FEE7FEE7FEE7FEE7FEE7FEE76F150008F5
:10012000ED000008202A04DB203A21FA02F0002129
:10013000704721FA02F3D040C2F1200291400843F7
:1001400019467047D2B201E000F8012B491EFBD2DC
:1001500070470022F6E710B513460A4604461946D2
:10016000FFF7F0FF204610BD30B505462A460B4686
:1001700012F8010B13F8014B08B1A042F8D01CB1E2
:10018000002802D06D1CF1E7284630BD421C10F853
:10019000011B0029FBD1801A704730B50B46014680
:1001A00000202022012409E021FA02F59D4205D316
:1001B00003FA02F5491B04FA02F52844151EA2F1C0
:1001C0000102F1DC30BD2DE9F05F054600209246CA
:1001D0009B4688460646814640241BE02846414609
:1001E00047462246FFF79EFF53465A46C01A9141A2
:1001F00010D311461846224600F0E0F92D1A67EB9D
:1002000001084F4622460120002100F0D7F917EBE4
:1002100000094E41201EA4F10104DFDC48463146AE
:100220002A464346BDE8F09F2DE9FE4F804681EA0D
:100230000300C00F0C46009021F0004123F0004560
:10024000B8EB0200A94105D24046214690461C4623
:100250000B46024623F00040104347D0270DC7F35A
:100260000A00C3F30A510290401A019040286BDA49
:10027000C3F3130040F4801B0098924620B1002382
:10028000D2EB030A63EB0B0B01985946C0F1400215
:10029000504600F093F906460D4650465946019ADD
:1002A00000F09BF910EB08006141002487EA11522D
:1002B00084EAE7731A4340D0009A62B3019A012A94
:1002C0004FEA075215DC001B61EB02014FF00042C0
:1002D00002EA0752CDE90042001C41F58011324686
:1002E0002B4600F09BF903B0BDE8F08F4046214655
:1002F000F9E7001B61EB0201001C41F580130018B7
:100300005B412018A2F5001747EB030140EAD570C6
:10031000B6196D4111E06D084FEA360645EAC07521
:100320004FEA0752001B61EB0201001C41F58011EE
:1003300049084FEA30000019514132462B4603B0BC
:10034000BDE8F04F00F05BB90098012240000023A7
:10035000D0EB020263EBE073009821464FEAE074B1
:10036000B8EB000061EB0401E9E783F000435BE7D1
:1003700081F0004158E72DE9FE4F81EA030404F0C3
:10038000004421F0004100944FF0000B23F00043A3
:1003900050EA01045ED052EA03045BD0C3F30A546E
:1003A000C1F30A552C44A4F2F3340194A0FB025487
:1003B000C1F3130141F48011C3F3130343F4801319
:1003C00001FB024400FB034E840A970A44EA81546D
:1003D00047EA8357A4FB076802958D0A05FB07854A
:1003E0004FEA932C04FB0C542705029D4FEA065854
:1003F00047EA1637B5EB08056EEB070C870E920E31
:1004000047EA811742EA8312A7FB0201B6EB0B0110
:1004100064EB00042B0D43EA0C335E1844EB1C50D4
:10042000DA465146E7FB0201C5F313044FEA0B33EA
:1004300043EA14534FEA0432019C43EA0603A4F151
:100440000C040294009CCDE900B400F0E7F803B07E
:10045000BDE8F08F00200146F9E72DE9F04D81EA73
:10046000030404F0004B21F0004514464FF0000A4D
:1004700023F0004150EA050220D054EA01021DD0C9
:10048000C5F30A570246C5F31303C1F31300C1F3C2
:100490000A5640F4801543F48013A7EB0608101B9E
:1004A000D64608F2FD3873EB050002D308F10108C7
:1004B00001E092185B41B8F1000F03DA0020014619
:1004C000BDE8F08D00204FF48011064684460EE012
:1004D000171B73EB050705D3121B63EB05030643DC
:1004E0004CEA010C49084FEA300092185B4150EA8F
:1004F0000107EDD152EA030012D082EA040083EA38
:100500000501084305D0101BAB4106D20122002390
:1005100006E000224FF0004302E06FF001025310AA
:100520001AEB06004CEB085110EB0A0041EB0B01F3
:10053000BDE8F04D00F063B8C1F30A52C1F31301F6
:1005400040F2FF3341F480119A4202DA0020014662
:10055000704740F233439A42A2F2334202DC5242E5
:10056000FFF7E0BD00F02AB830B5041E71F10004B9
:1005700004DB4FF00044404264EB0101141E73F1B0
:10058000000405DB1C464FF00043524263EB0403BA
:10059000994208BF904230BD064C074D06E0E06826
:1005A00040F0010394E8070098471034AC42F6D3BA
:1005B000FFF7A0FDB0250008D0250008202A04DBA5
:1005C000203A00FA02F1002070479140C2F1200366
:1005D00020FA03F3194390407047202A06DBCB171B
:1005E000203A41FA02F043EAE07306E041FA02F3EE
:1005F000D040C2F12002914008431946704710B51F
:10060000141E73F1000408DA401C41F10001921835
:100610005B411A4301D120F0010010BD2DE9F04DDE
:1006200092469B4611B1B1FA81F202E0B0FA80F233
:1006300020329046FFF7C2FF04460F4640EA0A0008
:1006400041EA0B0153465A46084313D0114653EA78
:10065000010019D0C8F140025046FFF763FD05467E
:100660000E46504659464246FFF7A8FF084305D0BC
:10067000012004E020463946BDE8F08D0020054306
:1006800046EAE0762C4337430A986305E40AA0EB78
:1006900008000022FD0A44EA47540A3002D500202F
:1006A0000146E9E7010510196941DDE9084500192E
:1006B0006941BDE8F04DA2E7FEE7704710B590F83C
:1006C00021100024022903D00421816301243DE08C
:1006D00001680A6822F00E020A6001680A6822F0C6
:1006E00001020A601A4A0168914201D1012121E008
:1006F000174A1432914201D110211BE0144A2832CA
:10070000914201D1891515E0114A3C32914201D143
:1007100089140FE00E4A5032914202D14FF48031D9
:1007200008E00B4A6432914202D14FF4801101E09B
:100730004FF08071064A083A5160012180F821107B
:10074000002180F82010416B01B18847204610BD80
:100750000800024070B5044600F004F90546601C2C
:1007600002D004480078044400F0FCF8401BA0428A
:10077000FAD370BD080000202DE9F84FDFF8B891DA
:10078000002409F1040A0AF1040B23460F270BF198
:10079000040EC9E00125A5402A40AA427DD1674E3A
:1007A000D1F804C0ACEB0608B44532D014DCBCF17F
:1007B000030F3AD009DCBCF1000F2AD0BCF1010FC5
:1007C0001CD0BCF1020F31D11DE0BCF1110F17D0CC
:1007D000BCF1120F2AD119E0B8F5881F19D006DC38
:1007E000B8F5803F15D0B8F5801F1FD111E0B8F5DE
:1007F000001F0ED0B8F5041F18D10AE0CB6815E031
:10080000CB681B1D12E0CB6808330FE0CB680C33BC
:100810000CE08B682BB1012B4FF0080303D045612E
:1008200004E0042302E0056100E00023FF2A01D870
:10083000064601E000F104064FEA840501D9A5F15E
:100840002005D6F8008007FA05FC28EA0C0803FA10
:1008500005F548EA0508C6F800804D68ED0062D548
:10086000374DAE6946F00106AE61AD6924F003066E
:1008700005F001050095334D06EB050CDCF808503A
:10088000A607360F07FA06F825EA0805DFF8B8804C
:10089000404503D14FF0000817E044E0DFF8AC809A
:1008A000404502D14FF001080FE0DFF8A480404539
:1008B00002D14FF0020808E0DFF89880404502D1ED
:1008C0004FF0030801E04FF0040808FA06F848EA80
:1008D0000508CCF808804D68D9F80060ED034D4656
:1008E00001D5164300E096432E604D68DAF80060AB
:1008F000AD03554601D5164300E096432E604D6882
:10090000DBF80060ED025D4601D5164300E096433A
:100910002E604D68DEF80060AD02754601D51643C5
:1009200000E096432E60641C0D682A46E5407FF483
:1009300031AFBDE8F88F0000000401400000111045
:10094000001002400000014000080140000C01407E
:1009500000100140001401400AB101617047090410
:10096000FBE7000001488068704700000800002095
:1009700002488168027811448160704708000020B5
:10098000074810B5016841F010010160032000F034
:1009900075F80F2000F006F800F024F8002010BDD4
:1009A0000020024070B50D4D04464FF47A7128784E
:1009B000B1FBF0F00A490968B1FBF0F000F0ECFA85
:1009C00048B9102C07D200222146501E00F036F8FC
:1009D00000206C6070BD012070BD00000800002088
:1009E000140000200C4808B5816941F001018161C3
:1009F000816901F001010091C16941F08051C1613B
:100A0000C06900F0805000900448416821F0E06126
:100A100041F00071416008BD00100240000001403B
:100A2000002809DB00F01F020121914040098000ED
:100A300000F1E020C0F8001170470000F0B40E4B48
:100A40001B680C46C3F30223C3F10705042D00D92C
:100A50000425191D072901D2002300E0DB1E012611
:100A600006FA05F1491E214099409E40761E164027
:100A70003143F0BC00F0F4BE0CED00E0064900F09C
:100A8000070208684FF6FF03184040EA0220034AB5
:100A900010430860704700000CED00E00000FA050C
:100AA0002DE9F0470F46050061D0434E306800F055
:100AB0000700B84209D2306820F0070038433060A0
:100AC000306800F00700B84251D128683B4C8107DC
:100AD00012D5400703D5606840F4E0606060287874
:100AE000000703D5606840F4605060606068A968E2
:100AF00020F0F000084360602878C00728D06868BC
:100B0000012810D02168022810D0890700292EDA88
:100B1000616821F0030101436160FFF723FF804614
:100B200041F288390DE021688903EFE78901EDE79B
:100B3000FFF718FFA0EB0801494502D90320BDE8E3
:100B4000F0876068696800F00C00B0EB810FEFD1AE
:100B5000306800F00700B8420BD9306820F0070079
:100B600038433060306800F00700B84201D00120FF
:100B7000E5E72878400705D56068E96820F4E0607B
:100B8000084360602878000706D56068296920F46A
:100B9000605040EAC100606000F038F86168084ABF
:100BA000C1F30311515CC84006490860064800685B
:100BB000FFF7F8FE0020C2E70020024000100240CC
:100BC00098250008140000200C0000200448054966
:100BD00000684968044AC1F30221515CC84070476B
:100BE0001400002000100240A82500080448054910
:100BF00000684968044AC1F3C221515CC84070478B
:100C00001400002000100240A825000812A185B0A1
:100C10000FC98DE80F0014A0144A006804905168B1
:100C2000134801F00C03042B10D0082B0ED1C1F394
:100C30008343C9031DF803000AD5516804AAC1F310
:100C40004041515C0A4A5043B0FBF1F005B0704797
:100C500008494843FAE700000203040506070809AB
:100C60000A0B0C0D0E0F10100102000000100240C4
:100C700000127A0000093D002DE9F84F040070D001
:100C80002078C04DC00749D06868C0F381000128B2
:100C900007D06868C0F38100022809D16868C003E2
:100CA00006D52868800339D560680028E7D035E08C
:100CB0006068B0F5803F0BD010B1B0F5A02F11D017
:100CC000286820F480302860286820F4802002E022
:100CD000286840F480302860606890B1FFF742FED9
:100CE00006460AE0286840F480202860F0E700BF4C
:100CF000FFF738FE801B642873D828688003F7D577
:100D00000CE0FFF72FFE064605E000BFFFF72AFEC6
:100D1000801B6428F0D828688003F7D420789A4E86
:100D200080074FF001094FF0000839D5686810F0CE
:100D30000C0F07D06868C0F38100022809D16868E9
:100D4000C00306D42868800714D52069012808D17B
:100D500010E02069B0B1C6F80090FFF703FE074627
:100D600005E00AE1FFF7FEFDC01B0228C4D8286891
:100D70008007F7D52868616920F0F80040EAC100D3
:100D800028600DE0C6F80080FFF7ECFD074604E0A0
:100D9000FFF7E8FDC01B022823D828688007F7D496
:100DA000207800072CD57948A169D9B1C0F8009006
:100DB000FFF7D8FD074604E0FFF7D4FDC01B02286B
:100DC0000FD8686A8007F7D571484FF4FA51006868
:100DD000B0FBF1F0009000BF0098411E0091FAD2E4
:100DE0000EE080E0C0F80080FFF7BCFD074604E09D
:100DF000FFF7B8FDC01B022875D8686A8007F7D4D2
:100E00002078400760D5E8690027C00008D4E86969
:100E100040F08050E861E869012700F080500090C0
:100E20005C480168C90513D40168834641F48071A8
:100E30000160FFF797FD824606E000BFFFF792FDD5
:100E4000A0EB0A0064284ED8DBF80000C005F5D5F9
:100E5000E06801280AD008B1052813D0286A20F0DC
:100E600001002862286A20F0040002E0286A40F0AD
:100E700001002862E06841F2883B98B1FFF772FDFB
:100E800082460BE0286A40F004002862EEE700BFCB
:100E9000FFF768FDA0EB0A0159455AD8286A800778
:100EA000F6D50CE0FFF75EFD824605E0FFF75AFD40
:100EB000A0EB0A0159454CD8286A8007F6D41FB127
:100EC000E86920F08050E861E06988B36968C1F39F
:100ED0008101022944D00228C6F8608004D0FFF7BF
:100EE00041FD044638E034E0FFF73CFD074604E0EE
:100EF000FFF738FDC01B02282BD828688001F7D4E3
:100F0000206AB0F5803F05D16868A16820F4003000
:100F100008436860D4E908010843696821F4741142
:100F200008436860C6F86090FFF71CFD044606E0C1
:100F300025E000BFFFF716FD001B022809D828682E
:100F40008001F7D51BE000BFFFF70CFD001B022856
:100F500002D90320BDE8F88F28688001F4D40EE0A0
:100F60000128F7D06868226A00F48031914204D1E8
:100F7000616A00F47010884201D00120EAE7002085
:100F8000E8E70000001002400000424280044242B4
:100F9000140000200070004010B5401EB0F1807FAA
:100FA00001D3012010BD4FF0E02460610F216017D4
:100FB00000F056FC0020A06107202061002010BD39
:100FC0007047000070B5026804461068D168536924
:100FD00010F00F0F53D003F0010501F490762E436B
:100FE0005FD0C20705D0CA0503D5E26B42F001020B
:100FF000E263420705D5DA0703D0E26B42F0020252
:10100000E263820705D5DA0703D0E26B42F00402FF
:10101000E263020707D501F020022A4303D0E26B06
:1010200042F00802E263E26B002A34D0800604D565
:10103000880602D5204600F0B1FA20684069E16BCD
:10104000C0F3801001F008010143204624D000F0D5
:1010500097FA2068416949061AD5416921F0400193
:101060004161606BA0B12D494163606BFFF726FBC6
:10107000002810D0606B416BBDE8704008478306C4
:101080000FD58B060DD52046BDE8704000F086BA1E
:101090002046FFF795FF70BDFFF792FF0020E06349
:1010A00070BD03062BD50B0629D594F839002128ED
:1010B000F6D1A068B0F5805F01D12069B0B1206A97
:1010C000411C2162216800784860E08C401E0004C9
:1010D000000CE084E4D12068C16821F08001C16087
:1010E0002068C16841F04001C16070BD206A00887D
:1010F000C0F308005060206A801C2062E5E74006CB
:10110000F3D54806F1D5D168204621F04001D160E1
:10111000202184F8391000F0CCF970BD7115000859
:1011200070B5040004D094F83900002510B106E031
:10113000012070BD84F83850204600F023F82420A8
:1011400084F839002068C16821F40051C16020464C
:1011500000F06AFA2068016921F490410161206879
:10116000416921F02A0141612068C16841F40051C0
:10117000C160E563202084F8390084F83A0000203B
:1011800070BD0000F0B5054602683F483D4B0024A5
:1011900002210326071585B09A4232D1826942F0B6
:1011A00004028261826902F004020492826942F0C0
:1011B00004028261826902F004020492826942F4AC
:1011C000804282618069314D00F4804004900802C1
:1011D000CDE900010120CDE9020669462846FFF766
:1011E000CBFACDE9007469462846FFF7C5FA2520F9
:1011F000FFF716FC032211462520FFF71FFC05B060
:10120000F0BD234B9A42FAD1826942F00802826112
:10121000826902F008020492826942F00802826147
:10122000826902F008020492C26942F48022C2611B
:10123000C069009700F4802001AA049082E852005F
:10124000144F69463846FFF797FAF814CDE90004C1
:10125000CDE9024669463846FFF78EFA002211466C
:101260002720FFF7EBFB2720FFF7DAFB2868C16890
:1012700041F02001C1602868C16841F01001C160DF
:10128000BDE70000003801400010024000080140A6
:1012900000480040000C01402DE9F84F044690F84A
:1012A0003A009A4616460D46202851D1EDB1E6B1D6
:1012B00094F8380001284BD0012084F8380000272A
:1012C000E763222084F83A00FFF74CFBA6858146AD
:1012D000E685A0684FF48058404501D1206938B1B7
:1012E0002E46002584F8387027E00120BDE8F88FED
:1012F0000026F7E74B46002220212046CDF800A02B
:1013000000F0EEF908B10320F0E726B1A0684045EF
:101310001BD038B108E020684068C0F3080025F809
:10132000020B07E0206980B12068406800F07F0070
:1013300006F8010BE08D401EE085E08D0028D9D134
:10134000202084F83A000020D0E720684068EFE7CA
:101350000220CBE790F83A30202B22D1F9B1F2B13C
:1013600090F83830012B1CD081628285C285002123
:10137000C163222280F83A2080F838100168CA68D8
:1013800042F48072CA6001684A6942F001024A610F
:101390000068C16841F02001C16000207047012051
:1013A000704702207047000030B50068114988423C
:1013B0000CD1114841880A0408D402464C04127822
:1013C0004FF0000306D50A2A01D0438030BD41F416
:1013D00000410DE00D2A09D0C1F30D04074D491C51
:1013E00089B22A554180C729EFD830BD41F48041E8
:1013F000418030BD0038014000000020180000206E
:101400002DE9F843044690F839001F4616460D466C
:1014100020284CD1C5B1BEB194F83800012846D07F
:10142000012084F838004FF00008C4F83C802120E7
:1014300084F83900FFF796FAA6848146E684A0680E
:10144000B0F5805F03D004E00120BDE8F883206997
:1014500028B12E465FF0000584F838800EE00026A3
:10146000FAE78021204600F03BF9A0B9AEB116F8AA
:10147000010B21684860E08C401EE084E08C4B4604
:101480004FF0000200970028EBD14FF040012046BA
:1014900000F026F930B10320D7E735F8020BC0F38E
:1014A0000800E6E7202084F839000020CDE702207C
:1014B000CBE77047FEE70000114808B5816941F0AD
:1014C00010018161816901F010010091816941F091
:1014D00020018161816901F020010091816941F061
:1014E00008018161816901F008010091816941F081
:1014F00004018161806900F00400009008BD0000D3
:1015000000100240FEE7FEE770477047FFF730BA71
:1015100030B58FB028216846FEF71BFE14210AA8BB
:10152000FEF717FE01210804CDE900100024029403
:1015300002250491CDE907504FF4E0100990684668
:10154000FFF79AFB08B172B6FEE70F20CDE90A0556
:101550004FF48060CDE90C4002210AA80E94FFF7F9
:101560009FFA002801D072B6FEE70FB030BD704779
:1015700010B5406A0021C185C184FFF721FD10BD6F
:101580000168CA6822F49072CA6001684A6922F050
:1015900001024A61202180F83A10704710B590F896
:1015A0003A10222901D0022010BD82684FF48053E6
:1015B0009A4201D1016921B1816A9A421BD04AB194
:1015C0000AE00268816A5268C2F308020A80816AEE
:1015D000891C08E0026972B10268526802F07F0259
:1015E0000A70816A491C8162C18D491E0904090C77
:1015F000C18503D016E002685268F1E70168CA6845
:1016000022F02002CA600168CA6822F48072CA60AF
:1016100001684A6922F001024A61202180F83A10EB
:10162000FFF7C2FE002010BD70B5044600680169D6
:10163000E26821F44051114301612169A068084327
:10164000616908432168CA6841F20C639A43024306
:10165000CA6020684169A26921F440711143416167
:101660001E492068884202D1FFF7C0FA01E0FFF767
:10167000ADFA00EBC00101EB00126068642180004C
:10168000B2FBF0F3B3FBF1F36FF018067343B2FB58
:10169000F0F5B2FBF0F605EB8305322303EB0515FD
:1016A000B5FBF1F5B6FBF1F605F0F00505EB061517
:1016B000B2FBF0F6B2FBF0F0B0FBF1F06FF0180205
:1016C000504306EB800003EB0010B0FBF1F0216803
:1016D00000F00F002844886070BD00000038014011
:1016E0002DE9F041984617460E460446069D1DE03A
:1016F000681C1BD02DB1FFF735F9A0EB0800A842FC
:1017000014D92068C16821F4D071C1602068416992
:1017100021F001014161202084F8390084F83A0069
:10172000002084F838000320BDE8F08120680068BC
:1017300036EA000004D00020B842D9D00020F3E7F8
:101740000120F9E710B50548FFF73CFC01220449E8
:101750000248FFF7FFFD0028F8D110BDE00000208F
:10176000000000207CB5214D28680168C9430907A5
:1017700004D40168416801910168416800681B4C0C
:10178000C0438006A4F1840422D44FF0FF33012229
:1017900069461648FFF780FDB4F880204FF400300A
:1017A000C2F30E017F2902D29DF8002007E0D10B81
:1017B000C903A4F880109DF80020C1F30E01625403
:1017C000B4F8801000EBF1304FEA7040A4F88000CC
:1017D00028680168C943C90607D434F8801F41F45A
:1017E000004121800168406801907CBDA401002077
:1017F000FEE700000FB4054B10B503A9044A029898
:1018000000F000F910BC5DF814FB0000552400083E
:10181000040000200FB4084B10B504A902AA0398D5
:1018200000F0F0F8044602A9002000F082FC2046F7
:1018300010BC5DF814FB00003321000837B51446D6
:101840000846064B6A46214600F0DCF80446694625
:10185000002000F06EFC20463EBD00003321000851
:101860000907090E002804DB00F1E02080F80014CD
:10187000704700F00F0000F1E02080F8141D704761
:1018800002E008C8121F08C1002AFAD17047704749
:10189000002001E001C1121F002AFBD170470000A7
:1018A0002DE9FF5FDDE90220010DDDF838B00243CC
:1018B00018D044F61050A1F2FF3141430D140F9897
:1018C000012820D0A5EB0B00401C5FEA000A4FF076
:1018D0000004474EDFF81C91A046504616D5CAF1C9
:1018E000000728E00F98012443A2012808D0002116
:1018F00000980F9BC0E90021C0E90243BDE8FF9FAB
:101900006FEA0B01F4E7CBF10000DEE7074612E0D7
:10191000F80707D02246334640464946FEF72BFDDE
:10192000804689462246334610461946FEF723FD77
:1019300004460E467F10002FEAD1DDE90201BAF11C
:10194000000F42464B4602DAFEF715FD01E0FEF7B6
:1019500084FD04460E460022284BFEF705FE03D800
:101960004FF0FF30014607E00022254B204631466C
:10197000FEF75AFCFEF7E0FD102409E0002C0ADB1C
:101980000A220023FEF71FFC019B30321A55641E09
:1019900050EA0102F2D1641C019AC4F1110314440B
:1019A0000F9A012A03D0012208430DD10AE008430F
:1019B00004D000204FF0110B0F9080E7A3EB0B0534
:1019C0006D1E0DE05B4504DD4FF0000205F10105E1
:1019D00004E003DA4FF00002A5F10105002AECD083
:1019E00000980F99C0E90231C0E9004586E7000080
:1019F000000024400000F03F300000000000F043F1
:101A00000000E03F2DE9FF4F95B09B468946064612
:101A100000250FE2252877D100242746F84A012126
:101A2000059400E0044316F8013F203B01FA03F05F
:101A30001042F7D130782A2811D06FF02F03307878
:101A4000A0F13002092A16D8059A44F0020402EBEC
:101A5000820203EB42021044761C0590EFE759F82E
:101A6000042B0592002A03DA504244F400540590F6
:101A700044F00204761C30782E2816D116F8010F97
:101A800044F004042A280DD06FF02F023078A0F122
:101A90003003092B09D807EB870302EB4303C71870
:101AA000761CF3E759F8047B761C30786C280FD04D
:101AB00006DC4C2817D068280DD06A2814D104E021
:101AC000742810D07A280FD10DE044F400140AE0F5
:101AD00044F4801401E044F440147278824202D14C
:101AE00004F58014761C761C307866280BD013DC45
:101AF000582877D009DC002875D04528F6D046282C
:101B0000F4D047281AD19DE118E0632835D0642825
:101B100079D0652812D195E1702873D008DC672848
:101B2000F1D069286FD06E280DD06F2806D1B5E0AE
:101B300073282CD0752875D0782874D05A461799F8
:101B400090476D1C75E1C4F30250022809D00328A8
:101B50000DD0D9F8001004280DD00D6009F104094A
:101B600067E1D9F80010EA17C1E90052F6E7D9F8A1
:101B700000100D80F2E70D70F0E719F8041B8DF8E6
:101B8000001000208DF80100EA46012003E059F81A
:101B900004AB4FF0FF3061074FF0000102D40DE0BD
:101BA00008F101018846B9420FDA8045F8DB1AF8DE
:101BB00008100029F4D108E008F1010188468142AB
:101BC000FADB1AF808100029F6D105985B46A0EB5D
:101BD000080721463846179A00F094FA284400EB8B
:101BE000080507E04DE029E10DE01AF8010B5A461F
:101BF00017999047B8F10108F7D25B46214638465D
:101C0000179A13E142E00A220092C4F302524FF005
:101C1000000A022A08D059F804CB032A4FEAEC71D3
:101C20000AD00DE029E02AE009F1070121F00702BE
:101C3000F2E802C1914609E00FFA8CFC4FEAEC7120
:101C4000042A03D14FFA8CFC4FEAEC71002907DA21
:101C50000A460021DCF1000C61EB02012D2202E0BA
:101C6000220504D52B228DF80420012203E0E2078F
:101C700001D02022F7E7904659E00A2102E0102225
:101C80000DE010214FF0000A00910BE010224FF000
:101C9000000A44F004040827009203E008224FF0F1
:101CA000000A0092C4F30252022A05D059F804CB6C
:101CB0000021032A08D009E009F1070121F00702F9
:101CC000F2E802C1914605E01FFA8CFC042A01D11A
:101CD0000CF0FF0C4FF00008220728D5702806D022
:101CE000009B83F0100353EA0A0305D00EE0402264
:101CF0008DF80420012208E05CEA010206D03022BF
:101D00008DF804208DF8050002229046009B83F098
:101D1000080353EA0A030AD15CEA010201D162070F
:101D200005D530228DF804204FF001087F1E582879
:101D300004D034A003900EA802900DE036A0F9E77D
:101D400053466046009AFEF73EFA84460398825C4A
:101D50000298401E029002705CEA0100F0D10298E5
:101D600006A9081A00F1200A600702D524F480347D
:101D700000E00127574502DDA7EB0A0000E0002044
:101D800000EB0A01009005984144401A0590E003D9
:101D900006D45B462146179A059800F0B3F905442E
:101DA000002706E001A85A46C05D179990476D1CB0
:101DB0007F1C4745F6DBE0030CD55B462146179AAE
:101DC000059800F09FF9054404E030205A46179921
:101DD00090476D1C0099481E00900029F5DC08E032
:101DE000029802995A460078491C02911799904727
:101DF0006D1CBAF10001AAF1010AF1DC65E10000F5
:101E000009280100303132333435363738396162D0
:101E10006364656600000000303132333435363794
:101E200038394142434445460000000000F058F96B
:101E30000544761C307800287FF4ECAD19B02846B4
:101E4000BDE8F08F620700D4062709F1070222F0EF
:101E5000070CFCE80223E14603F000485FEA080CA7
:101E600002D00FF2702C0DE05FEA045C02D50FF295
:101E7000682C07E05FEAC47C02D00FF2602C01E01E
:101E8000AFF2700C4FF0FF3823F00043CDF850C094
:101E900065280CD006DC452809D046281DD04728E7
:101EA0003DD13DE0662818D067287ED138E000217A
:101EB000112F01DB112000E0781CCDE9000106A9FB
:101EC0000EA8FFF7EDFCDDE90F010E9A039100214A
:101ED000009207F1010A04914DE04FF00040009795
:101EE000CDE9011006A90EA8FFF7DAFCDDE90F0223
:101EF00003920E9B11990022DDF80CA0009304922E
:101F000011B9791C00EB010AB7EB0A0004D4C0F147
:101F1000FF3007F1010A0490AAEB0700019044E0AA
:101F2000012F00DA01270021112F01DD112000E02F
:101F30003846CDE9000106A90EA8FFF7B1FCDDE99E
:101F40000F010E9A0391002104910092BA462107D5
:101F50000CD40399514500DA8A46BAF1010F05DD28
:101F6000009AAAF10101515C302908D0B84202DA86
:101F700010F1040F06DA0121CDE9011015E0AAF1F4
:101F80000101E9E7002805DC049901440491AAEB6A
:101F9000000102E0411C514500DD8A460499401AC7
:101FA000401C01904FF000400290200704D401989B
:101FB000504501DBCDF8048000208DF84F000298D9
:101FC0000DF14F07B0F1004F25D02B200E90029855
:101FD0004FF0020800280CDA404202902D200E90AB
:101FE00007E00A210298FEF7D8F83031029007F88E
:101FF000011DB8F10001A8F10108F2DC02980028E7
:10200000EFD1791E0E980870307800F0200040F073
:10201000450007F8020D12A8C01B00F1070814982C
:10202000007800B1012000EB0A01019801EBE0719A
:1020300005984144401A401E0590E00306D45B46D3
:102040002146179A059800F05DF805441498007829
:1020500018B15A46179990476D1CE00324D55B468A
:102060002146179A059800F04DF805441CE00498A5
:10207000002807DBDDE90301884203DD0098405CAE
:10208000179901E0179930205A469047049805F1B6
:102090000105401C04900198401E019004D12E209F
:1020A0005A46179990476D1CBAF10001AAF1010A2E
:1020B000DDDC05E017F8010B5A46179990476D1CB7
:1020C000B8F10001A8F10108F4DC5B462146179A3B
:1020D0000598ABE62D0000002B000000200000005A
:1020E0002DE9F041044600251E461746880404D415
:1020F00005E039462020B0476D1C641EF9D52846FE
:10210000BDE8F0812DE9F041044600251E469046C9
:10211000C80301D5302700E02027880404D505E056
:1021200041463846B0476D1C641EF9D52846BDE8C7
:10213000F0810A68531C0B601070704770B5002462
:102140004FF4FA752A4606A106A000F0CFF8002841
:1021500004D0641CE4B20A2CF4D3012070BD00004A
:102160004F4B00004154000010B54FF4FA7218B103
:10217000012804D0032010BD05A106A001E004A1A0
:1021800006A000F0B3F80028F5D0012010BD000033
:102190004F4B000041544530000000004154453190
:1021A0000000000070B505464FF4FA720CA10DA0B6
:1021B00000F09CF808B1012070BD00F031F90CA1CD
:1021C000FDF7D2FF04460AA1401CFDF7CDFF002118
:1021D0000170621C07A12846FFF71CFB002070BDA0
:1021E0004F4B000041542B4349465352000000001E
:1021F000220000002573000010B50A4C00221021B7
:102200002046FEF7A9FB6420FEF7A4FA0122102164
:102210002046FEF7A1FBBDE810404FF4FA70FEF730
:1022200099BA00000008014010B51149044686B073
:10223000886940F0040088618869694600F00400FC
:1022400004901020009001200190002002900320B3
:1022500003900848FEF790FAFFF7CEFF204600F003
:10226000B3F8FFF76BFF002800D0012006B010BDC7
:10227000001002400008014000B591B00B46024634
:1022800007A16846FFF7C6FA42F2107209A1684634
:1022900000F02CF8002800D0012011B000BD000093
:1022A00041542B43574A41503D222573222C22256D
:1022B000732200005749464920474F542049500097
:1022C00010B540F6B83204A105A000F00FF80028C0
:1022D00000D0012010BD000072656164790000002B
:1022E00041542B524553544F5245000070B514468B
:1022F0000D46064600F0A4F831460EA000F078F82E
:102300000EA0FFF777FA45B13CB100BF00F088F8A6
:1023100038B12946FDF728FF08B1002070BD00F054
:102320008FF80120641EFEF715FA002CEED1022072
:1023300070BD000025730D0A0000000021000000A0
:1023400010B54FF4FA72012805D0022806D00328F0
:102350000CD0032010BD07A107A001E005A109A032
:10236000FFF7C4FF0028F5D0012010BD01A108A08F
:10237000F6E700004F4B000041542B43574D4F44AC
:10238000453D310041542B43574D4F44453D3200AC
:1023900041542B43574D4F44453D330010B54FF446
:1023A000FA7206A106A0FFF7A1FF08B1012010BD37
:1023B0004FF47A70FEF7CEF9002010BD4F4B0000AD
:1023C00041542B52535400000849074AC1E90020E8
:1023D000002088600C22C860C1E904028861C861DD
:1023E0000846FEF79DBE000000480040A401002002
:1023F0000FB40A4810B503AA0299FFF71FFA07485D
:10240000FDF7C4FE054982B24FF0FF33A1F1400051
:10241000FEF7F6FF10BC5DF814FB0000E40100209D
:102420000649B1F88000020405D5C0F30E00002271
:102430000A54084670470020704700002001002021
:10244000034830F8801F6FF30F01018070470000D0
:102450002001002004490A685206FCD5024AC1B294
:10246000121D116070470000003801401FB5FEF7D3
:1024700087FAFFF74DF8FFF71FF84FF4E1342046D5
:1024800000F06EF82046FFF7CFFE30B119A0FFF73D
:10249000B1F9C820FEF75EF9F8E71DA0FFF7AAF929
:1024A000FFF70EFF0446FFF749FE04440120FFF743
:1024B00047FF0444FFF772FF04440020FFF754FE77
:1024C000044418A11AA0FFF7D7FE04446846FFF79A
:1024D00069FE204410F0FF0F06D018A0FFF78AF91C
:1024E000C820FEF737F9F8E7694619A0FFF782F927
:1024F000FEE7000041544B2D4D573832363644200C
:10250000696E6974206661696C6564210D0A00005A
:102510004A6F696E696E6720746F2041502E2E2EAF
:102520000D0A000030303030303030300000000014
:10253000415355532D54582D330000004572726F8E
:102540007220746F206A6F696E206170210D0A001D
:102550006765742069702D3E25730D0A0000000028
:102560000B4910B5094AC1E9002000208860C86005
:10257000086188610C2048610846FEF7D1FDBDE87E
:102580001040012203490248FEF7E4BE0038014032
:10259000E00000200000002000000000000000001B
:1025A00001020304060708090000000001020304F9
:1025B000D025000800000020180000008018000846
:1025C000E8250008180000201006000090180008F8
:1025D00000000000000000000100000010000000EA
:0825E000000000000024F400DB
:04000005080000ED02
:00000001FF
